S0170000476967616E746573206465204D44462E73726563FB
S11300000C9434000C9451000C9451000C94610134
S11300100C9451000C9451000C9451000C94510018
S11300200C9451000C9451000C9451000C94510008
S11300300C9451000C9451000C9408010C94510040
S11300400C9451000C9451000C9486010C945100B2
S11300500C9451000C94C0000C9451000C94510069
S11300600C9451000C94510011241FBECFEFD8E022
S1130070DEBFCDBF11E0A0E0B1E0EAEBF3E002C0E7
S113008005900D92A230B107D9F721E0A2E0B1E0CA
S113009001C01D92A830B207E1F70E9499000C94A8
S11300A0DB010C94000082E084BD93E095BD99EFE0
S11300B097BD80936E0008951092C50087E68093E3
S11300C0C40086E08093C20088E18093C1007894E4
S11300D0089581E480937C008EE880937A000895EB
S11300E0EAE7F0E0808180648083089580910001D4
S11300F0909101018230910551F08330910519F0FE
S1130100019761F408C08BB18F7E8BB908958BB1D0
S11301108F7B8BB908958BB18F778BB9089583E06A
S113012090E090930101809300018BB1806D8BB9B5
S113013008950E9469000E945C000E9470000E9461
S1130140530084B18E7F84B9E8E6F0E08081816059
S11301508083EBE6F0E0808181608083E1ECF0E075
S113016080818068808384B1866084B987B18D6121
S113017087B98AB1806F8AB98BB1806D8BB9FFCF93
S11301801F920F920FB60F9211242F933F934F9308
S11301905F936F937F938F939F93AF93BF93EF93EB
S11301A0FF938091780090917900873B9340E8F029
S11301B0809100019091010118161906B4F4809100
S11301C00401811112C00E94760080910001909177
S11301D001010197909301018093000181E08093D4
S11301E0040110920601109205010E947000FF9113
S11301F0EF91BF91AF919F918F917F916F915F919B
S11302004F913F912F910F900FBE0F901F90189513
S11302101F920F920FB60F9211242F938F939F93D7
S1130220809104018823F1F085B1897F85B980919B
S113023005019091060101969093060180930501B2
S113024080910501909106018838934158F080917E
S1130250000190910101892B29F085B1866085B94F
S113026010920401809102019091030101969093F0
S11302700301809302018091020190910301883E61
S1130280934070F08091000190910101892B41F01D
S113029010920301109202019BB180E289278BB96D
S11302A08091000190910101892B19F485B18F7D12
S11302B085B99F918F912F910F900FBE0F901F9032
S11302C018951F920F920FB60F9211242F933F93FC
S11302D04F935F936F937F938F939F93AF93BF934A
S11302E0EF93FF9318990E948F00FF91EF91BF91B4
S11302F0AF919F918F917F916F915F914F913F91BA
S11303002F910F900FBE0F901F9018951F920F9270
S11303100FB60F9211248F938091C600809307012A
S113032080910701863451F485B1866085B988B11E
S1130330816188B988B1837F88B937C0809107010A
S1130340823451F485B1866085B988B18C6088B9EE
S113035088B18E7E88B929C080910701833521F444
S113036085B1897F85B921C0809107018C3469F4F6
S113037085B1826085B985B18B7F85B988B181608B
S113038088B988B18B7F88B910C080910701823504
S113039061F485B1846085B985B18D7F85B988B1F3
S11303A0806188B988B1877F88B98F910F900FBE1B
S10D03B00F901F901895F894FFCFEA
S10503BA03003A
S9030000FC
